:0A036D003F065B4F666D7D077F6F52
:0D035F00010800010900010A00020B000066
:0903370075F00A8493F5807F0142
:100340007E64AD071FED6008AD061EED60F480F819
:01035000228A
:1000FA00E4F50D7590F7E59064F7602A7F0A12031C
:10010A0040AF90EF2449601124E0601224F060139C
:10011A0024707012750D01800D750D058008750D1E
:10012A00098003750D0DE590B4F7FB7590FBE5901A
:10013A0064FB602A7F0A120340AF90EF24456011E6
:10014A0024E0601224F0601324707012750D02808E
:10015A000D750D068008750D0A8003750D0EE59064
:10016A00B4FBFB7590FDE59064FD602A7F0A1203DB
:10017A0040AF90EF2443601124E0601224F0601332
:10018A0024707012750D03800D750D078008750DAA
:10019A000B8003750D0FE590B4FDFB7590FEE5909D
:1001AA0064FE602A7F0A120340AF90EF2442601176
:1001BA0024E0601224F0601324707012750D04801C
:1001CA000D750D088008750D0C8003750D10E590EE
:0501DA00B4FEFBAF0DB7
:0101DF0022FD
:1001E000C2A2C2A3C2A4E50875F00A84E5F0900398
:1001F0006D12033BE4F580D2A2C2A3C2A4E50812AB
:100200000337E4F580D2A2D2A3C2A4E50975F00AAF
:1002100084E5F012033BE4F580C2A2C2A3D2A4E5B8
:1002200009120337E4F580C2A2D2A3D2A4E50A756D
:10023000F00A84E5F012033BE4F580D2A2D2A3D207
:10024000A4E50A120337E4F580C2A2D2A3C2A475C2
:1002500080407F01120340E4F580D2A2C2A3D2A461
:0C0260007580407F01120340E4F580220D
:0E035100758901758C3C758AB0D2A9D2AF2295
:10000E00E4FC1203511201E020B10D7F01120340F6
:10001E0020B105D28C30B1FD20B00D7F011203400E
:10002E0020B005C28C30B0FD20B2127F0112034009
:10003E0020B20AE4F50AF509F50830B2FD1200FA0D
:10004E00AC07EC60C014B40C0050BA90006775F0A9
:10005E0003A4C58325F0C5837302008B02009602AC
:10006E0000A20200A80200AE0200BC0200C80200FC
:10007E00CE0200D40200E20200EE0200F4E50864B3
:10008E003B60820508020013E50870030200131599
:10009E000802001375083B020013E4F50802001372
:1000AE00E509643B70030200130509020013E5091C
:1000BE007003020013150902001375093B020013A9
:1000CE00E4F509020013E50A641770030200130534
:1000DE000A020013E50A7003020013150A02001348
:0C00EE00750A17020013E4F50A02001363
:03000B000202F8F6
:1002F800C0E0C0D0758AB0758C3C050CE50C700266
:10030800050B6414450B7022F50BF50C0508E50880
:10031800B43C057508000509E509B43C05750900F4
:0F032800050AE50AB41803750A00D0D0D0E032F8
:0300000002026C8D
:0C026C00787FE4F6D8FD75810D0202B326
:1002780002000EE493A3F8E493A34003F68001F28E
:1002880008DFF48029E493A3F85407240CC8C33387
:10029800C4540F4420C8834004F456800146F6DF56
:1002A800E4800B010204081020408090035FE47E84
:1002B800019360BCA3FF543F30E509541FFEE4934B
:1002C800A360010ECF54C025E060A840B8E493A312
:1002D800FAE493A3F8E493A3C8C582C8CAC583CA3D
:1002E800F0A3C8C582C8CAC583CADFE9DEE780BEF5
:01036C000090
:00000001FF
