:0A038C003F065B4F666D7D077F6F33
:10036D00010D00010800010900010A00020B000047
:0903530075F00A8493F5807F0126
:10035C007E64AD071FED6008AD061EED60F480F8FD
:01036C00226E
:1000FA00E4F50E7590F7E59064F7602A7F0A12031B
:10010A005CAF90EF2449601124E0601224F0601380
:10011A0024707012750E01800D750E058008750E1B
:10012A00098003750E0DE590B4F7FB7590FBE59019
:10013A0064FB602A7F0A12035CAF90EF24456011CA
:10014A0024E0601224F0601324707012750E02808D
:10015A000D750E068008750E0A8003750E0EE59061
:10016A00B4FBFB7590FDE59064FD602A7F0A1203DB
:10017A005CAF90EF2443601124E0601224F0601316
:10018A0024707012750E03800D750E078008750EA7
:10019A000B8003750E0FE590B4FDFB7590FEE5909C
:1001AA0064FE602A7F0A12035CAF90EF244260115A
:1001BA0024E0601224F0601324707012750E04801B
:1001CA000D750E088008750E0C8003750E10E590EB
:0501DA00B4FEFBAF0EB6
:0101DF0022FD
:1001E000C2A2C2A3C2A4E50875F00A84E5F0900398
:1001F0008C120357E4F580D2A2C2A3C2A4E5081270
:100200000353E4F580D2A2D2A3C2A4E50975F00A93
:1002100084E5F0120357E4F580C2A2C2A3D2A4E59C
:1002200009120353E4F580C2A2D2A3D2A4E50A7551
:10023000F00A84E5F0120357E4F580D2A2D2A3D2EB
:10024000A4E50A120353E4F580C2A2D2A3C2A475A6
:1002500080407F0112035CE4F580D2A2C2A3D2A445
:0C0260007580407F0112035CE4F58022F1
:0E037E00758901758CFC758A66D2A9D2AF22F2
:03000B000202F8F6
:1002F800C0E0C0D075D000C006C007758CFC758AF8
:1003080066050CE50C7002050B64E87004E50B64E7
:1003180003702FF50BF50C050DAF0DFEBE0307BFDF
:10032800E804F50D0508E508B43C0575080005095D
:10033800E509B43C05750900050AE50AB418037512
:0B0348000A00D007D006D0D0D0E03271
:10000E00E4FC12037E1201E020B10D7F0112035CAD
:10001E0020B105D28C30B1FD20B00D7F0112035CF2
:10002E0020B005C28C30B0FD20B2127F0112035CED
:10003E0020B20AE4F50AF509F50830B2FD1200FA0D
:10004E00AC07EC60C014B40C0050BA90006775F0A9
:10005E0003A4C58325F0C5837302008B02009602AC
:10006E0000A20200A80200AE0200BC0200C80200FC
:10007E00CE0200D40200E20200EE0200F4E50864B3
:10008E003B60820508020013E50870030200131599
:10009E000802001375083B020013E4F50802001372
:1000AE00E509643B70030200130509020013E5091C
:1000BE007003020013150902001375093B020013A9
:1000CE00E4F509020013E50A641770030200130534
:1000DE000A020013E50A7003020013150A02001348
:0C00EE00750A17020013E4F50A02001363
:0300000002026C8D
:0C026C00787FE4F6D8FD75810E0202B325
:1002780002000EE493A3F8E493A34003F68001F28E
:1002880008DFF48029E493A3F85407240CC8C33387
:10029800C4540F4420C8834004F456800146F6DF56
:1002A800E4800B010204081020408090036DE47E76
:1002B800019360BCA3FF543F30E509541FFEE4934B
:1002C800A360010ECF54C025E060A840B8E493A312
:1002D800FAE493A3F8E493A3C8C582C8CAC583CA3D
:1002E800F0A3C8C582C8CAC583CADFE9DEE780BEF5
:01037D00007F
:00000001FF
