:0300000002000EED
:0C000E00787FE4F6D8FD758113020055E0
:1002FA00FEFDFBF7EFDFBF7F3F065B4F666D7D07B5
:09030A007F6F777C395E79710088
:03000600011303E0
:1002E100D3EF9400EE9400400F7D8E7C02DCFEDDA6
:0802F100FAEF1F70EB1E80E81C
:0102F90022E2
:1001A600C39512FBE49400FA7C007D64AF03FE1253
:1001B600009AED75F00A8490030293F50A7C007D9F
:1001C6000AAF03AE021200EF74022DF58274033CEF
:1001D600F583E493F50B850A0CF50D850A0EF50FEC
:0501E600850A10F5116F
:1001EB00E4FFEF9002FA93F5A0740A2FF8E6F5807E
:1001FB007D0A7C00ED1DAA0470011C4A70F6E4F523
:05020B00800FBF08DDBB
:0102100022CB
:10039200438901758CFC758A18D2B9D2A9D2AFD221
:0203A2008C22AB
:10031300751303D292D2B0D294D2B1D293D295D2E2
:0803230090D297D291D29622EC
:10032B00C292C2B0D294D2B1D293C295C290D2979C
:05033B00D291D29622D0
:10034000D292D2B0C294C2B1D293C295C290D29787
:05035000D291D29622BB
:10036A00D292D2B0D294D2B1C295C290D297D2913F
:04037A0075130122D4
:10035500C292C2B0D294D2B1D293D295D290C29762
:05036500C291D29622B6
:10037E00C292C2B0D294D2B1D295D290D297D2912B
:04038E0075130222BF
:1002BA00751201120392D288D2A8D2AF751303E540
:1002CA0012D39405500A74061201A612032B80EF6A
:0702DA00120313751201224B
:10026C001202BAE512B41E03751201E512C3940A08
:10027C00500A740A1201A612034080E7E512C394D7
:10028C000F500CC3740F1201A712036A02026FE520
:10029C0012C39419500CC374191201A712035502FE
:0E02AC00026FC3741E1201A712037E02026FBE
:03000B00020211DD
:04021100C0E0C0D0B9
:10021500758CFC758A180509E50970020508E51352
:1002250024FE601414601E2402701AE51220E004F6
:10023500C2938015D2938011E51220E004C2968006
:1002450008D2968004D293D296E509B4E814E5085D
:10025500B4030F7508007509000512D293D296757F
:02026500130381
:05026700D0D0D0E03210
:03000300020125D2
:10012500C0E0C0F0C083C082C0D075D000C000C0A0
:0B01350002C003C004C005C006C007E4
:1001400020B24A7F0A7E001202E120B240AB127553
:100150001201E512C3940A5032C374099512FFE4E8
:100160009400FE7C007D6412009AED75F00A849084
:10017000030293F50AC374099512FFE49400FE7C10
:0D018000007D0A1201CB12032B80C78B12E9
:10018D00D007D006D005D004D003D002D000D0D0F7
:09019D00D082D083D0F0D0E03212
:10001A0002026CE493A3F8E493A34003F68001F28E
:10002A0008DFF48029E493A3F85407240CC8C333E7
:10003A00C4540F4420C8834004F456800146F6DFB6
:10004A00E4800B0102040810204080900006E47E40
:10005A00019360BCA3FF543F30E509541FFEE493AB
:10006A00A360010ECF54C025E060A840B8E493A372
:10007A00FAE493A3F8E493A3C8C582C8CAC583CA9D
:10008A00F0A3C8C582C8CAC583CADFE9DEE780BE55
:0100090000F6
:10009A00BC000BBE0029EF8DF084FFADF022E4CC4A
:1000AA00F875F008EF2FFFEE33FEEC33FCEE9DEC13
:1000BA00984005FCEE9DFE0FD5F0E9E4CEFD22ED59
:1000CA00F8F5F0EE8420D21CFEADF075F008EF2FA3
:1000DA00FFED33FD4007985006D5F0F222C398FD94
:0500EA000FD5F0EA2231
:1000EF00C2D5EC30E709B2D5E4C39DFDE49CFCEE2C
:1000FF0030E715B2D5E4C39FFFE49EFE12009AC30A
:10010F00E49DFDE49CFC800312009A30D507C3E404
:06011F009FFFE49EFE229A
:00000001FF
